:100000000C9472000C9493000C9493000C94930045
:100010000C9493000C9493000C9493000C94930014
:100020000C9493000C9493000C9493000C94930004
:100030000C9493000C9493000C9493000C949300F4
:100040000C9493000C9493000C9493000C949300E4
:100050000C9493000C9493000C9493000C949300D4
:100060000C9493000C94AD000C9493000C949300AA
:100070000C9493000C9493000C9493000C949300B4
:100080000C9493000C9493000C9493000C949300A4
:100090000C9493000C9493000C9493000C94930094
:1000A0000C9493000C9493000C9493000C94930084
:1000B0000C9493000C9493000C9493000C94930074
:1000C0000C9493000C9493000C9493000C94930064
:1000D0000C9493000C9493000C9493000C94930054
:1000E0000C94930011241FBECFEFD1E2DEBFCDBF31
:1000F00000E00CBF12E0A0E0B2E0E8ECF1E000E0CC
:100100000BBF02C007900D92AE30B107D9F712E0D5
:10011000AEE0B2E001C01D92AF30B107E1F70E943E
:10012000D4000C94E2000C940000E1ECF0E01082AA
:100130001092C00086E08093C2008FE58093C400D7
:100140001092C50088E980830895E0ECF0E090818A
:1001500095FFFDCF8093C60008951F920F920FB6B2
:100160000F9211248F938091C60080930E028F917D
:100170000F900FBE0F901F901895E0ECF0E080817B
:100180008823ECF78091C6000895CF93DF93EC01AC
:100190008881882331F021960E94A50089918823C7
:1001A000D9F7DF91CF9108950E949500C0E0D2E089
:1001B0000E94BD00182FCE010E94C500812F0E9411
:0801C000A500F6CFF894FFCF73
:0E01C80049207265636569766564203A00001F
:00000001FF
